{
  "_format": "hh-sol-artifact-1",
  "contractName": "RealEstate",
  "sourceName": "contracts/RealEstate.sol",
  "abi": [
    {
      "inputs": [],
      "stateMutability": "nonpayable",
      "type": "constructor"
    },
    {
      "anonymous": false,
      "inputs": [
        {
          "indexed": true,
          "internalType": "address",
          "name": "owner",
          "type": "address"
        },
        {
          "indexed": true,
          "internalType": "address",
          "name": "approved",
          "type": "address"
        },
        {
          "indexed": true,
          "internalType": "uint256",
          "name": "tokenId",
          "type": "uint256"
        }
      ],
      "name": "Approval",
      "type": "event"
    },
    {
      "anonymous": false,
      "inputs": [
        {
          "indexed": true,
          "internalType": "address",
          "name": "owner",
          "type": "address"
        },
        {
          "indexed": true,
          "internalType": "address",
          "name": "operator",
          "type": "address"
        },
        {
          "indexed": false,
          "internalType": "bool",
          "name": "approved",
          "type": "bool"
        }
      ],
      "name": "ApprovalForAll",
      "type": "event"
    },
    {
      "anonymous": false,
      "inputs": [
        {
          "indexed": true,
          "internalType": "address",
          "name": "from",
          "type": "address"
        },
        {
          "indexed": true,
          "internalType": "address",
          "name": "to",
          "type": "address"
        },
        {
          "indexed": true,
          "internalType": "uint256",
          "name": "tokenId",
          "type": "uint256"
        }
      ],
      "name": "Transfer",
      "type": "event"
    },
    {
      "inputs": [
        {
          "internalType": "address",
          "name": "to",
          "type": "address"
        },
        {
          "internalType": "uint256",
          "name": "tokenId",
          "type": "uint256"
        }
      ],
      "name": "approve",
      "outputs": [],
      "stateMutability": "nonpayable",
      "type": "function"
    },
    {
      "inputs": [
        {
          "internalType": "address",
          "name": "owner",
          "type": "address"
        }
      ],
      "name": "balanceOf",
      "outputs": [
        {
          "internalType": "uint256",
          "name": "",
          "type": "uint256"
        }
      ],
      "stateMutability": "view",
      "type": "function"
    },
    {
      "inputs": [
        {
          "internalType": "uint256",
          "name": "tokenId",
          "type": "uint256"
        }
      ],
      "name": "getApproved",
      "outputs": [
        {
          "internalType": "address",
          "name": "",
          "type": "address"
        }
      ],
      "stateMutability": "view",
      "type": "function"
    },
    {
      "inputs": [
        {
          "internalType": "address",
          "name": "owner",
          "type": "address"
        },
        {
          "internalType": "address",
          "name": "operator",
          "type": "address"
        }
      ],
      "name": "isApprovedForAll",
      "outputs": [
        {
          "internalType": "bool",
          "name": "",
          "type": "bool"
        }
      ],
      "stateMutability": "view",
      "type": "function"
    },
    {
      "inputs": [
        {
          "internalType": "string",
          "name": "tokenURI",
          "type": "string"
        }
      ],
      "name": "mintPropertyNFT",
      "outputs": [
        {
          "internalType": "uint256",
          "name": "",
          "type": "uint256"
        }
      ],
      "stateMutability": "nonpayable",
      "type": "function"
    },
    {
      "inputs": [],
      "name": "name",
      "outputs": [
        {
          "internalType": "string",
          "name": "",
          "type": "string"
        }
      ],
      "stateMutability": "view",
      "type": "function"
    },
    {
      "inputs": [
        {
          "internalType": "uint256",
          "name": "tokenId",
          "type": "uint256"
        }
      ],
      "name": "ownerOf",
      "outputs": [
        {
          "internalType": "address",
          "name": "",
          "type": "address"
        }
      ],
      "stateMutability": "view",
      "type": "function"
    },
    {
      "inputs": [
        {
          "internalType": "address",
          "name": "from",
          "type": "address"
        },
        {
          "internalType": "address",
          "name": "to",
          "type": "address"
        },
        {
          "internalType": "uint256",
          "name": "tokenId",
          "type": "uint256"
        }
      ],
      "name": "safeTransferFrom",
      "outputs": [],
      "stateMutability": "nonpayable",
      "type": "function"
    },
    {
      "inputs": [
        {
          "internalType": "address",
          "name": "from",
          "type": "address"
        },
        {
          "internalType": "address",
          "name": "to",
          "type": "address"
        },
        {
          "internalType": "uint256",
          "name": "tokenId",
          "type": "uint256"
        },
        {
          "internalType": "bytes",
          "name": "data",
          "type": "bytes"
        }
      ],
      "name": "safeTransferFrom",
      "outputs": [],
      "stateMutability": "nonpayable",
      "type": "function"
    },
    {
      "inputs": [
        {
          "internalType": "address",
          "name": "operator",
          "type": "address"
        },
        {
          "internalType": "bool",
          "name": "approved",
          "type": "bool"
        }
      ],
      "name": "setApprovalForAll",
      "outputs": [],
      "stateMutability": "nonpayable",
      "type": "function"
    },
    {
      "inputs": [
        {
          "internalType": "bytes4",
          "name": "interfaceId",
          "type": "bytes4"
        }
      ],
      "name": "supportsInterface",
      "outputs": [
        {
          "internalType": "bool",
          "name": "",
          "type": "bool"
        }
      ],
      "stateMutability": "view",
      "type": "function"
    },
    {
      "inputs": [],
      "name": "symbol",
      "outputs": [
        {
          "internalType": "string",
          "name": "",
          "type": "string"
        }
      ],
      "stateMutability": "view",
      "type": "function"
    },
    {
      "inputs": [
        {
          "internalType": "uint256",
          "name": "tokenId",
          "type": "uint256"
        }
      ],
      "name": "tokenURI",
      "outputs": [
        {
          "internalType": "string",
          "name": "",
          "type": "string"
        }
      ],
      "stateMutability": "view",
      "type": "function"
    },
    {
      "inputs": [],
      "name": "totalSupply",
      "outputs": [
        {
          "internalType": "uint256",
          "name": "",
          "type": "uint256"
        }
      ],
      "stateMutability": "view",
      "type": "function"
    },
    {
      "inputs": [
        {
          "internalType": "address",
          "name": "from",
          "type": "address"
        },
        {
          "internalType": "address",
          "name": "to",
          "type": "address"
        },
        {
          "internalType": "uint256",
          "name": "tokenId",
          "type": "uint256"
        }
      ],
      "name": "transferFrom",
      "outputs": [],
      "stateMutability": "nonpayable",
      "type": "function"
    }
  ],
  "bytecode": "0x60806040523480156200001157600080fd5b506040518060400160405280600c81526020017f50726f7065727479204e465400000000000000000000000000000000000000008152506040518060400160405280600481526020017f504e46540000000000000000000000000000000000000000000000000000000081525081600090816200008f919062000324565b508060019081620000a1919062000324565b5050506200040b565b600081519050919050565b7f4e487b7100000000000000000000000000000000000000000000000000000000600052604160045260246000fd5b7f4e487b7100000000000000000000000000000000000000000000000000000000600052602260045260246000fd5b600060028204905060018216806200012c57607f821691505b602082108103620001425762000141620000e4565b5b50919050565b60008190508160005260206000209050919050565b60006020601f8301049050919050565b600082821b905092915050565b600060088302620001ac7fffffffffffffffffffffffffffffffffffffffffffffffffffffffffffffffff826200016d565b620001b886836200016d565b95508019841693508086168417925050509392505050565b6000819050919050565b6000819050919050565b600062000205620001ff620001f984620001d0565b620001da565b620001d0565b9050919050565b6000819050919050565b6200022183620001e4565b6200023962000230826200020c565b8484546200017a565b825550505050565b600090565b6200025062000241565b6200025d81848462000216565b505050565b5b8181101562000285576200027960008262000246565b60018101905062000263565b5050565b601f821115620002d4576200029e8162000148565b620002a9846200015d565b81016020851015620002b9578190505b620002d1620002c8856200015d565b83018262000262565b50505b505050565b600082821c905092915050565b6000620002f960001984600802620002d9565b1980831691505092915050565b6000620003148383620002e6565b9150826002028217905092915050565b6200032f82620000aa565b67ffffffffffffffff8111156200034b576200034a620000b5565b5b62000357825462000113565b6200036482828562000289565b600060209050601f8311600181146200039c576000841562000387578287015190505b62000393858262000306565b86555062000403565b601f198416620003ac8662000148565b60005b82811015620003d657848901518255600182019150602085019450602081019050620003af565b86831015620003f65784890151620003f2601f891682620002e6565b8355505b6001600288020188555050505b505050505050565b612c25806200041b6000396000f3fe608060405234801561001057600080fd5b50600436106100f55760003560e01c8063604e3f3f11610097578063a22cb46511610066578063a22cb46514610298578063b88d4fde146102b4578063c87b56dd146102d0578063e985e9c514610300576100f5565b8063604e3f3f146101ea5780636352211e1461021a57806370a082311461024a57806395d89b411461027a576100f5565b8063095ea7b3116100d3578063095ea7b31461017857806318160ddd1461019457806323b872dd146101b257806342842e0e146101ce576100f5565b806301ffc9a7146100fa57806306fdde031461012a578063081812fc14610148575b600080fd5b610114600480360381019061010f9190611a90565b610330565b6040516101219190611ad8565b60405180910390f35b610132610412565b60405161013f9190611b83565b60405180910390f35b610162600480360381019061015d9190611bdb565b6104a4565b60405161016f9190611c49565b60405180910390f35b610192600480360381019061018d9190611c90565b6104ea565b005b61019c610601565b6040516101a99190611cdf565b60405180910390f35b6101cc60048036038101906101c79190611cfa565b610612565b005b6101e860048036038101906101e39190611cfa565b610672565b005b61020460048036038101906101ff9190611e82565b610692565b6040516102119190611cdf565b60405180910390f35b610234600480360381019061022f9190611bdb565b6106c9565b6040516102419190611c49565b60405180910390f35b610264600480360381019061025f9190611ecb565b61074f565b6040516102719190611cdf565b60405180910390f35b610282610806565b60405161028f9190611b83565b60405180910390f35b6102b260048036038101906102ad9190611f24565b610898565b005b6102ce60048036038101906102c99190612005565b6108ae565b005b6102ea60048036038101906102e59190611bdb565b610910565b6040516102f79190611b83565b60405180910390f35b61031a60048036038101906103159190612088565b610a22565b6040516103279190611ad8565b60405180910390f35b60007f80ac58cd000000000000000000000000000000000000000000000000000000007bffffffffffffffffffffffffffffffffffffffffffffffffffffffff1916827bffffffffffffffffffffffffffffffffffffffffffffffffffffffff191614806103fb57507f5b5e139f000000000000000000000000000000000000000000000000000000007bffffffffffffffffffffffffffffffffffffffffffffffffffffffff1916827bffffffffffffffffffffffffffffffffffffffffffffffffffffffff1916145b8061040b575061040a82610ab6565b5b9050919050565b606060008054610421906120f7565b80601f016020809104026020016040519081016040528092919081815260200182805461044d906120f7565b801561049a5780601f1061046f5761010080835404028352916020019161049a565b820191906000526020600020905b81548152906001019060200180831161047d57829003601f168201915b5050505050905090565b60006104af82610b20565b6004600083815260200190815260200160002060009054906101000a900473ffffffffffffffffffffffffffffffffffffffff169050919050565b60006104f5826106c9565b90508073ffffffffffffffffffffffffffffffffffffffff168373ffffffffffffffffffffffffffffffffffffffff1603610565576040517f08c379a000000000000000000000000000000000000000000000000000000000815260040161055c9061219a565b60405180910390fd5b8073ffffffffffffffffffffffffffffffffffffffff16610584610b6b565b73ffffffffffffffffffffffffffffffffffffffff1614806105b357506105b2816105ad610b6b565b610a22565b5b6105f2576040517f08c379a00000000000000000000000000000000000000000000000000000000081526004016105e99061222c565b60405180910390fd5b6105fc8383610b73565b505050565b600061060d6007610c2c565b905090565b61062361061d610b6b565b82610c3a565b610662576040517f08c379a0000000000000000000000000000000000000000000000000000000008152600401610659906122be565b60405180910390fd5b61066d838383610ccf565b505050565b61068d838383604051806020016040528060008152506108ae565b505050565b600061069e6007610fc8565b60006106aa6007610c2c565b90506106b63382610fde565b6106c081846111fb565b80915050919050565b6000806106d583611268565b9050600073ffffffffffffffffffffffffffffffffffffffff168173ffffffffffffffffffffffffffffffffffffffff1603610746576040517f08c379a000000000000000000000000000000000000000000000000000000000815260040161073d9061232a565b60405180910390fd5b80915050919050565b60008073ffffffffffffffffffffffffffffffffffffffff168273ffffffffffffffffffffffffffffffffffffffff16036107bf576040517f08c379a00000000000000000000000000000000000000000000000000000000081526004016107b6906123bc565b60405180910390fd5b600360008373ffffffffffffffffffffffffffffffffffffffff1673ffffffffffffffffffffffffffffffffffffffff168152602001908152602001600020549050919050565b606060018054610815906120f7565b80601f0160208091040260200160405190810160405280929190818152602001828054610841906120f7565b801561088e5780601f106108635761010080835404028352916020019161088e565b820191906000526020600020905b81548152906001019060200180831161087157829003601f168201915b5050505050905090565b6108aa6108a3610b6b565b83836112a5565b5050565b6108bf6108b9610b6b565b83610c3a565b6108fe576040517f08c379a00000000000000000000000000000000000000000000000000000000081526004016108f5906122be565b60405180910390fd5b61090a84848484611411565b50505050565b606061091b82610b20565b600060066000848152602001908152602001600020805461093b906120f7565b80601f0160208091040260200160405190810160405280929190818152602001828054610967906120f7565b80156109b45780601f10610989576101008083540402835291602001916109b4565b820191906000526020600020905b81548152906001019060200180831161099757829003601f168201915b5050505050905060006109c561146d565b905060008151036109da578192505050610a1d565b600082511115610a0f5780826040516020016109f7929190612418565b60405160208183030381529060405292505050610a1d565b610a1884611484565b925050505b919050565b6000600560008473ffffffffffffffffffffffffffffffffffffffff1673ffffffffffffffffffffffffffffffffffffffff16815260200190815260200160002060008373ffffffffffffffffffffffffffffffffffffffff1673ffffffffffffffffffffffffffffffffffffffff16815260200190815260200160002060009054906101000a900460ff16905092915050565b60007f01ffc9a7000000000000000000000000000000000000000000000000000000007bffffffffffffffffffffffffffffffffffffffffffffffffffffffff1916827bffffffffffffffffffffffffffffffffffffffffffffffffffffffff1916149050919050565b610b29816114ec565b610b68576040517f08c379a0000000000000000000000000000000000000000000000000000000008152600401610b5f9061232a565b60405180910390fd5b50565b600033905090565b816004600083815260200190815260200160002060006101000a81548173ffffffffffffffffffffffffffffffffffffffff021916908373ffffffffffffffffffffffffffffffffffffffff160217905550808273ffffffffffffffffffffffffffffffffffffffff16610be6836106c9565b73ffffffffffffffffffffffffffffffffffffffff167f8c5be1e5ebec7d5bd14f71427d1e84f3dd0314c0f7b2291e5b200ac8c7c3b92560405160405180910390a45050565b600081600001549050919050565b600080610c46836106c9565b90508073ffffffffffffffffffffffffffffffffffffffff168473ffffffffffffffffffffffffffffffffffffffff161480610c885750610c878185610a22565b5b80610cc657508373ffffffffffffffffffffffffffffffffffffffff16610cae846104a4565b73ffffffffffffffffffffffffffffffffffffffff16145b91505092915050565b8273ffffffffffffffffffffffffffffffffffffffff16610cef826106c9565b73ffffffffffffffffffffffffffffffffffffffff1614610d45576040517f08c379a0000000000000000000000000000000000000000000000000000000008152600401610d3c906124ae565b60405180910390fd5b600073ffffffffffffffffffffffffffffffffffffffff168273ffffffffffffffffffffffffffffffffffffffff1603610db4576040517f08c379a0000000000000000000000000000000000000000000000000000000008152600401610dab90612540565b60405180910390fd5b610dc1838383600161152d565b8273ffffffffffffffffffffffffffffffffffffffff16610de1826106c9565b73ffffffffffffffffffffffffffffffffffffffff1614610e37576040517f08c379a0000000000000000000000000000000000000000000000000000000008152600401610e2e906124ae565b60405180910390fd5b6004600082815260200190815260200160002060006101000a81549073ffffffffffffffffffffffffffffffffffffffff02191690556001600360008573ffffffffffffffffffffffffffffffffffffffff1673ffffffffffffffffffffffffffffffffffffffff168152602001908152602001600020600082825403925050819055506001600360008473ffffffffffffffffffffffffffffffffffffffff1673ffffffffffffffffffffffffffffffffffffffff16815260200190815260200160002060008282540192505081905550816002600083815260200190815260200160002060006101000a81548173ffffffffffffffffffffffffffffffffffffffff021916908373ffffffffffffffffffffffffffffffffffffffff160217905550808273ffffffffffffffffffffffffffffffffffffffff168473ffffffffffffffffffffffffffffffffffffffff167fddf252ad1be2c89b69c2b068fc378daa952ba7f163c4a11628f55a4df523b3ef60405160405180910390a4610fc38383836001611653565b505050565b6001816000016000828254019250508190555050565b600073ffffffffffffffffffffffffffffffffffffffff168273ffffffffffffffffffffffffffffffffffffffff160361104d576040517f08c379a0000000000000000000000000000000000000000000000000000000008152600401611044906125ac565b60405180910390fd5b611056816114ec565b15611096576040517f08c379a000000000000000000000000000000000000000000000000000000000815260040161108d90612618565b60405180910390fd5b6110a460008383600161152d565b6110ad816114ec565b156110ed576040517f08c379a00000000000000000000000000000000000000000000000000000000081526004016110e490612618565b60405180910390fd5b6001600360008473ffffffffffffffffffffffffffffffffffffffff1673ffffffffffffffffffffffffffffffffffffffff16815260200190815260200160002060008282540192505081905550816002600083815260200190815260200160002060006101000a81548173ffffffffffffffffffffffffffffffffffffffff021916908373ffffffffffffffffffffffffffffffffffffffff160217905550808273ffffffffffffffffffffffffffffffffffffffff16600073ffffffffffffffffffffffffffffffffffffffff167fddf252ad1be2c89b69c2b068fc378daa952ba7f163c4a11628f55a4df523b3ef60405160405180910390a46111f7600083836001611653565b5050565b611204826114ec565b611243576040517f08c379a000000000000000000000000000000000000000000000000000000000815260040161123a906126aa565b60405180910390fd5b806006600084815260200190815260200160002090816112639190612876565b505050565b60006002600083815260200190815260200160002060009054906101000a900473ffffffffffffffffffffffffffffffffffffffff169050919050565b8173ffffffffffffffffffffffffffffffffffffffff168373ffffffffffffffffffffffffffffffffffffffff1603611313576040517f08c379a000000000000000000000000000000000000000000000000000000000815260040161130a90612994565b60405180910390fd5b80600560008573ffffffffffffffffffffffffffffffffffffffff1673ffffffffffffffffffffffffffffffffffffffff16815260200190815260200160002060008473ffffffffffffffffffffffffffffffffffffffff1673ffffffffffffffffffffffffffffffffffffffff16815260200190815260200160002060006101000a81548160ff0219169083151502179055508173ffffffffffffffffffffffffffffffffffffffff168373ffffffffffffffffffffffffffffffffffffffff167f17307eab39ab6107e8899845ad3d59bd9653f200f220920489ca2b5937696c31836040516114049190611ad8565b60405180910390a3505050565b61141c848484610ccf565b61142884848484611659565b611467576040517f08c379a000000000000000000000000000000000000000000000000000000000815260040161145e90612a26565b60405180910390fd5b50505050565b606060405180602001604052806000815250905090565b606061148f82610b20565b600061149961146d565b905060008151116114b957604051806020016040528060008152506114e4565b806114c3846117e0565b6040516020016114d4929190612418565b6040516020818303038152906040525b915050919050565b60008073ffffffffffffffffffffffffffffffffffffffff1661150e83611268565b73ffffffffffffffffffffffffffffffffffffffff1614159050919050565b600181111561164d57600073ffffffffffffffffffffffffffffffffffffffff168473ffffffffffffffffffffffffffffffffffffffff16146115c15780600360008673ffffffffffffffffffffffffffffffffffffffff1673ffffffffffffffffffffffffffffffffffffffff16815260200190815260200160002060008282546115b99190612a75565b925050819055505b600073ffffffffffffffffffffffffffffffffffffffff168373ffffffffffffffffffffffffffffffffffffffff161461164c5780600360008573ffffffffffffffffffffffffffffffffffffffff1673ffffffffffffffffffffffffffffffffffffffff16815260200190815260200160002060008282546116449190612aa9565b925050819055505b5b50505050565b50505050565b600061167a8473ffffffffffffffffffffffffffffffffffffffff166118ae565b156117d3578373ffffffffffffffffffffffffffffffffffffffff1663150b7a026116a3610b6b565b8786866040518563ffffffff1660e01b81526004016116c59493929190612b32565b6020604051808303816000875af192505050801561170157506040513d601f19601f820116820180604052508101906116fe9190612b93565b60015b611783573d8060008114611731576040519150601f19603f3d011682016040523d82523d6000602084013e611736565b606091505b50600081510361177b576040517f08c379a000000000000000000000000000000000000000000000000000000000815260040161177290612a26565b60405180910390fd5b805181602001fd5b63150b7a0260e01b7bffffffffffffffffffffffffffffffffffffffffffffffffffffffff1916817bffffffffffffffffffffffffffffffffffffffffffffffffffffffff1916149150506117d8565b600190505b949350505050565b6060600060016117ef846118d1565b01905060008167ffffffffffffffff81111561180e5761180d611d57565b5b6040519080825280601f01601f1916602001820160405280156118405781602001600182028036833780820191505090505b509050600082602001820190505b6001156118a3578080600190039150507f3031323334353637383961626364656600000000000000000000000000000000600a86061a8153600a858161189757611896612bc0565b5b0494506000850361184e575b819350505050919050565b6000808273ffffffffffffffffffffffffffffffffffffffff163b119050919050565b600080600090507a184f03e93ff9f4daa797ed6e38ed64bf6a1f010000000000000000831061192f577a184f03e93ff9f4daa797ed6e38ed64bf6a1f010000000000000000838161192557611924612bc0565b5b0492506040810190505b6d04ee2d6d415b85acef8100000000831061196c576d04ee2d6d415b85acef8100000000838161196257611961612bc0565b5b0492506020810190505b662386f26fc10000831061199b57662386f26fc10000838161199157611990612bc0565b5b0492506010810190505b6305f5e10083106119c4576305f5e10083816119ba576119b9612bc0565b5b0492506008810190505b61271083106119e95761271083816119df576119de612bc0565b5b0492506004810190505b60648310611a0c5760648381611a0257611a01612bc0565b5b0492506002810190505b600a8310611a1b576001810190505b80915050919050565b6000604051905090565b600080fd5b600080fd5b60007fffffffff0000000000000000000000000000000000000000000000000000000082169050919050565b611a6d81611a38565b8114611a7857600080fd5b50565b600081359050611a8a81611a64565b92915050565b600060208284031215611aa657611aa5611a2e565b5b6000611ab484828501611a7b565b91505092915050565b60008115159050919050565b611ad281611abd565b82525050565b6000602082019050611aed6000830184611ac9565b92915050565b600081519050919050565b600082825260208201905092915050565b60005b83811015611b2d578082015181840152602081019050611b12565b60008484015250505050565b6000601f19601f8301169050919050565b6000611b5582611af3565b611b5f8185611afe565b9350611b6f818560208601611b0f565b611b7881611b39565b840191505092915050565b60006020820190508181036000830152611b9d8184611b4a565b905092915050565b6000819050919050565b611bb881611ba5565b8114611bc357600080fd5b50565b600081359050611bd581611baf565b92915050565b600060208284031215611bf157611bf0611a2e565b5b6000611bff84828501611bc6565b91505092915050565b600073ffffffffffffffffffffffffffffffffffffffff82169050919050565b6000611c3382611c08565b9050919050565b611c4381611c28565b82525050565b6000602082019050611c5e6000830184611c3a565b92915050565b611c6d81611c28565b8114611c7857600080fd5b50565b600081359050611c8a81611c64565b92915050565b60008060408385031215611ca757611ca6611a2e565b5b6000611cb585828601611c7b565b9250506020611cc685828601611bc6565b9150509250929050565b611cd981611ba5565b82525050565b6000602082019050611cf46000830184611cd0565b92915050565b600080600060608486031215611d1357611d12611a2e565b5b6000611d2186828701611c7b565b9350506020611d3286828701611c7b565b9250506040611d4386828701611bc6565b9150509250925092565b600080fd5b600080fd5b7f4e487b7100000000000000000000000000000000000000000000000000000000600052604160045260246000fd5b611d8f82611b39565b810181811067ffffffffffffffff82111715611dae57611dad611d57565b5b80604052505050565b6000611dc1611a24565b9050611dcd8282611d86565b919050565b600067ffffffffffffffff821115611ded57611dec611d57565b5b611df682611b39565b9050602081019050919050565b82818337600083830152505050565b6000611e25611e2084611dd2565b611db7565b905082815260208101848484011115611e4157611e40611d52565b5b611e4c848285611e03565b509392505050565b600082601f830112611e6957611e68611d4d565b5b8135611e79848260208601611e12565b91505092915050565b600060208284031215611e9857611e97611a2e565b5b600082013567ffffffffffffffff811115611eb657611eb5611a33565b5b611ec284828501611e54565b91505092915050565b600060208284031215611ee157611ee0611a2e565b5b6000611eef84828501611c7b565b91505092915050565b611f0181611abd565b8114611f0c57600080fd5b50565b600081359050611f1e81611ef8565b92915050565b60008060408385031215611f3b57611f3a611a2e565b5b6000611f4985828601611c7b565b9250506020611f5a85828601611f0f565b9150509250929050565b600067ffffffffffffffff821115611f7f57611f7e611d57565b5b611f8882611b39565b9050602081019050919050565b6000611fa8611fa384611f64565b611db7565b905082815260208101848484011115611fc457611fc3611d52565b5b611fcf848285611e03565b509392505050565b600082601f830112611fec57611feb611d4d565b5b8135611ffc848260208601611f95565b91505092915050565b6000806000806080858703121561201f5761201e611a2e565b5b600061202d87828801611c7b565b945050602061203e87828801611c7b565b935050604061204f87828801611bc6565b925050606085013567ffffffffffffffff8111156120705761206f611a33565b5b61207c87828801611fd7565b91505092959194509250565b6000806040838503121561209f5761209e611a2e565b5b60006120ad85828601611c7b565b92505060206120be85828601611c7b565b9150509250929050565b7f4e487b7100000000000000000000000000000000000000000000000000000000600052602260045260246000fd5b6000600282049050600182168061210f57607f821691505b602082108103612122576121216120c8565b5b50919050565b7f4552433732313a20617070726f76616c20746f2063757272656e74206f776e6560008201527f7200000000000000000000000000000000000000000000000000000000000000602082015250565b6000612184602183611afe565b915061218f82612128565b604082019050919050565b600060208201905081810360008301526121b381612177565b9050919050565b7f4552433732313a20617070726f76652063616c6c6572206973206e6f7420746f60008201527f6b656e206f776e6572206f7220617070726f76656420666f7220616c6c000000602082015250565b6000612216603d83611afe565b9150612221826121ba565b604082019050919050565b6000602082019050818103600083015261224581612209565b9050919050565b7f4552433732313a2063616c6c6572206973206e6f7420746f6b656e206f776e6560008201527f72206f7220617070726f76656400000000000000000000000000000000000000602082015250565b60006122a8602d83611afe565b91506122b38261224c565b604082019050919050565b600060208201905081810360008301526122d78161229b565b9050919050565b7f4552433732313a20696e76616c696420746f6b656e2049440000000000000000600082015250565b6000612314601883611afe565b915061231f826122de565b602082019050919050565b6000602082019050818103600083015261234381612307565b9050919050565b7f4552433732313a2061646472657373207a65726f206973206e6f74206120766160008201527f6c6964206f776e65720000000000000000000000000000000000000000000000602082015250565b60006123a6602983611afe565b91506123b18261234a565b604082019050919050565b600060208201905081810360008301526123d581612399565b9050919050565b600081905092915050565b60006123f282611af3565b6123fc81856123dc565b935061240c818560208601611b0f565b80840191505092915050565b600061242482856123e7565b915061243082846123e7565b91508190509392505050565b7f4552433732313a207472616e736665722066726f6d20696e636f72726563742060008201527f6f776e6572000000000000000000000000000000000000000000000000000000602082015250565b6000612498602583611afe565b91506124a38261243c565b604082019050919050565b600060208201905081810360008301526124c78161248b565b9050919050565b7f4552433732313a207472616e7366657220746f20746865207a65726f2061646460008201527f7265737300000000000000000000000000000000000000000000000000000000602082015250565b600061252a602483611afe565b9150612535826124ce565b604082019050919050565b600060208201905081810360008301526125598161251d565b9050919050565b7f4552433732313a206d696e7420746f20746865207a65726f2061646472657373600082015250565b6000612596602083611afe565b91506125a182612560565b602082019050919050565b600060208201905081810360008301526125c581612589565b9050919050565b7f4552433732313a20746f6b656e20616c7265616479206d696e74656400000000600082015250565b6000612602601c83611afe565b915061260d826125cc565b602082019050919050565b60006020820190508181036000830152612631816125f5565b9050919050565b7f45524337323155524953746f726167653a2055524920736574206f66206e6f6e60008201527f6578697374656e7420746f6b656e000000000000000000000000000000000000602082015250565b6000612694602e83611afe565b915061269f82612638565b604082019050919050565b600060208201905081810360008301526126c381612687565b9050919050565b60008190508160005260206000209050919050565b60006020601f8301049050919050565b600082821b905092915050565b60006008830261272c7fffffffffffffffffffffffffffffffffffffffffffffffffffffffffffffffff826126ef565b61273686836126ef565b95508019841693508086168417925050509392505050565b6000819050919050565b600061277361276e61276984611ba5565b61274e565b611ba5565b9050919050565b6000819050919050565b61278d83612758565b6127a16127998261277a565b8484546126fc565b825550505050565b600090565b6127b66127a9565b6127c1818484612784565b505050565b5b818110156127e5576127da6000826127ae565b6001810190506127c7565b5050565b601f82111561282a576127fb816126ca565b612804846126df565b81016020851015612813578190505b61282761281f856126df565b8301826127c6565b50505b505050565b600082821c905092915050565b600061284d6000198460080261282f565b1980831691505092915050565b6000612866838361283c565b9150826002028217905092915050565b61287f82611af3565b67ffffffffffffffff81111561289857612897611d57565b5b6128a282546120f7565b6128ad8282856127e9565b600060209050601f8311600181146128e057600084156128ce578287015190505b6128d8858261285a565b865550612940565b601f1984166128ee866126ca565b60005b82811015612916578489015182556001820191506020850194506020810190506128f1565b86831015612933578489015161292f601f89168261283c565b8355505b6001600288020188555050505b505050505050565b7f4552433732313a20617070726f766520746f2063616c6c657200000000000000600082015250565b600061297e601983611afe565b915061298982612948565b602082019050919050565b600060208201905081810360008301526129ad81612971565b9050919050565b7f4552433732313a207472616e7366657220746f206e6f6e20455243373231526560008201527f63656976657220696d706c656d656e7465720000000000000000000000000000602082015250565b6000612a10603283611afe565b9150612a1b826129b4565b604082019050919050565b60006020820190508181036000830152612a3f81612a03565b9050919050565b7f4e487b7100000000000000000000000000000000000000000000000000000000600052601160045260246000fd5b6000612a8082611ba5565b9150612a8b83611ba5565b9250828203905081811115612aa357612aa2612a46565b5b92915050565b6000612ab482611ba5565b9150612abf83611ba5565b9250828201905080821115612ad757612ad6612a46565b5b92915050565b600081519050919050565b600082825260208201905092915050565b6000612b0482612add565b612b0e8185612ae8565b9350612b1e818560208601611b0f565b612b2781611b39565b840191505092915050565b6000608082019050612b476000830187611c3a565b612b546020830186611c3a565b612b616040830185611cd0565b8181036060830152612b738184612af9565b905095945050505050565b600081519050612b8d81611a64565b92915050565b600060208284031215612ba957612ba8611a2e565b5b6000612bb784828501612b7e565b91505092915050565b7f4e487b7100000000000000000000000000000000000000000000000000000000600052601260045260246000fdfea26469706673582212203565f67c545d5074cf230269c3569423289be291f5e1bad09b34c2eac4a8153f64736f6c63430008110033",
  "linkReferences": {},
  "deployedLinkReferences": {}
}